S011000041546D6567613132382E7372656349
S113000086C00000A1C000009FC000009DC0000089
S11300109BC0000099C0000097C0000095C000007C
S113002093C0000091C000008FC000008DC000008C
S11300308BC0000089C0000087C0000085C000009C
S113004083C0000081C000008DC100007DC000009D
S11300507BC00000DBC1000077C0000075C0000059
S113006073C0000071C000006FC000006DC00000CC
S11300706BC0000018C2000067C0000065C000002B
S113008063C0000061C000005FC000000763423627
S1130090B79BD8A71A39685618AEBAAB558C1D3C15
S11300A0B7CC5763BD6DEDFD753EF6177231BF00D9
S11300B00000803F08000000BE922449123EABAA13
S11300C0AA2ABECDCCCC4C3E00000080BEABAAAA6E
S11300D0AA3E00000000BF000000803F00000000B6
S11300E000084178D3BB4387D1133D190E3CC3BDEF
S11300F04282AD2B3E68EC8276BED98FE1A93E4C9C
S113010080EFFFBE01C4FF7F3F0000000000112408
S11301101FBECFEFD0E1DEBFCDBF11E0A0E0B1E064
S1130120ECECFDE000E00BBF02C007900D92A230A2
S1130130B107D9F721E0A2E0B1E001C01D92A535D5
S1130140B207E1F7D4D140C65BCFFC01918181E0D5
S1130150890F8183DF01A90FB11D12966C93803240
S113016009F411820895FC01808191E0980F908335
S1130170DF01A80FB11D12968C91903209F4108200
S113018008958AB188698AB9E5E9F0E080818660DA
S113019080831092900086E689B9789408951F931D
S11301A0CF93DF93EC011881DEDF813741F4809136
S11301B00D01811104C081E080930D0101C01883F9
S11301C0DF91CF911F9108954F925F926F927F922A
S11301D08F929F92AF92BF92DF92EF92FF920F9312
S11301E01F93CF93DF93662309F43DC08C01C62F80
S11301F0D0E021976150E62EF12C2FEFE21AF20A9B
S1130200E80EF91EF801D1908F01BE010D2E000CED
S1130210880B990BFAD29B01AC0160E070E080E29C
S113022091E4E2D34B015C0160913301709134019C
S113023080E090E0E8D22B013C016D2D70E080E07D
S113024090E0E3D2A50194016CD39B01AC01C301FE
S1130250B20149D2ACD27093340160933301219737
S11302600E151F0579F6DF91CF911F910F91FF9025
S1130270EF90DF90BF90AF909F908F907F906F90A2
S11302805F904F9008957F928F929F92AF92BF920A
S1130290CF92DF92EF92FF920F931F93CF93DF934E
S11302A0662371F0FC01615070E06F5F7F4F680F4F
S11302B0791F712C9191790EE617F707D9F701C0D0
S11302C0712C222309F43CC07A01022F10E0015062
S11302D011092150C22ED12C8FEFC81AD80AC40E8E
S11302E0D51EC0E0F701D1917F01B801012E000CA9
S11302F0880B990B8AD29B01AC0160E070E080E22C
S113030091E472D34B015C016D2F70E080E090E0CA
S11303107CD2A501940105D34B015C016C2F70E0E4
S113032080E090E072D29B01AC01C501B401DBD145
S11303303ED2C62F01501109EC14FD0499F601C0F8
S1130340C0E081E07C1280E0DF91CF911F910F919A
S1130350FF90EF90DF90CF90BF90AF909F908F90E1
S11303607F9008951F920F920FB60F9211240BB62F
S11303700F922F933F934F935F936F937F938F933A
S11303809F93AF93BF93EF93FF936CB1609310016E
S113039081E191E0DADE80910D01882329F08091DA
S11303A00B018F5F80930B01FF91EF91BF91AF9190
S11303B09F918F917F916F915F914F913F912F9179
S11303C00F900BBE0F900FBE0F901F901895BE9A02
S11303D0C6988FB580628FBD8FB583608FBD8EB593
S11303E088608EBD8EB582608EBD84E690E099BD36
S11303F088BD0895379A359A339A86B1866086B94E
S113040087B1806C87B9399A369A08951F920F92F2
S11304100FB60F9211240BB60F922F933F934F9365
S11304205F936F937F938F939F93AF93BF93EF9358
S1130430FF9364B175B180E090E0E5D12AE037ED37
S113044043E250E46ED220E030E040E85AE369D25F
S113045020E030E04AE754E464D2A9D17093030168
S113046060930201FF91EF91BF91AF919F918F91A2
S11304707F916F915F914F913F912F910F900BBEA0
S11304800F900FBE0F901F901895BC9AC4980895B2
S1130490BD9AC598EAE8F0E080818360808387B7DD
S11304A0846087BF08951F920F920FB60F92112494
S11304B08F939F9380910001813029F498B380E257
S11304C0892788BB0DC0809104018F5F809304014C
S11304D0853031F498B380E2892788BB10920401F7
S11304E09F918F910F900FBE0F901F90189549DE2A
S11304F06EDF80DFCADFCCDFE1E1F1E01082118240
S113050000E010E0FF24F39481E191E048DE809163
S11305100D01813009F08DC080910B018823E1F039
S113052080910C01811106C081E191E01CDE8053B1
S113053080930C0180910C0190910B01891760F458
S1130540181750F481E191E00EDEE12FF0E0EB5C4E
S1130550FE4F805380831F5F40910C0120910B015B
S113056030E0842F90E002968217930774F40230EF
S113057060F414135EC081E191E0F5DDE02FF0E05A
S1130580E25FFE4F805380830F5F80910C0118134C
S113059050C0023009F04DC022E04EE051E0612F1E
S11305A085E391E070DE8823A9F1612F85E391E072
S11305B00BDEE0913301F0913401CF0164EE7CE075
S11305C0E0D3D62FDD0FDD0F80E0C82FD0930A01D2
S11305D0C09309019F013695279536952795ABE77A
S11305E0B4E1E3D3969587959C01220F331F220F24
S11305F0331F820F931F9F01280F391F3093080167
S113060020930701E81BF90BF0930601E093050121
S1130610D9BDC8BD10920D0110920B0110920C01AE
S1130620109234011092330198B380E1892788BB7A
S1130630FFCF8091020190910301009709F464CFE8
S1130640209107013091080128173907B0F4F0927E
S11306500001109204018091090190910A010A9706
S113066090930A018093090199BD88BD809102018C
S113067090910301009709F447CF2091050130912F
S113068006018217930748F5F092000110920401C5
S11306908091090190910A010A9690930A0180932E
S11306A0090199BD88BD80910201909103010097D1
S11306B009F42ACF20910501309106012817390742
S11306C008F022CF20910701309108018217930787
S11306D008F01ACF1092000117CF80910201909177
S11306E00301E8CF5058BB27AA270ED0E0C0D1D0D1
S11306F030F0D6D020F031F49F3F11F41EF4C6C080
S11307000EF4E095E7FBBCC0E92FE2D080F3BA1702
S1130710620773078407950718F071F49EF5FAC011
S11307200EF4E0950B2EBA2FA02D0B01B901900108
S11307300C01CA01A0011124FF27591B99F0593F4C
S113074050F4503E68F11A16F040A22F232F342F94
S11307504427585FF3CF469537952795A795F040E2
S11307605395C9F77EF41F16BA0B620B730B840BF7
S1130770BAF09150A1F0FF0FBB1F661F771F881FAF
S1130780C2F70EC0BA0F621F731F841F48F4879507
S113079077956795B795F7959E3F08F0B3CF9395F6
S11307A0880F08F09927EE0F97958795089598D0AC
S11307B088F09F5790F0B92F9927B751A0F0D1F046
S11307C0660F771F881F991F1AF0BA95C9F712C0D0
S11307D0B13081F09FD0B1E008959CC0672F782F8D
S11307E08827B85F39F0B93FCCF38695779567953C
S11307F0B395D9F73EF490958095709561957F4FA8
S11308008F4F9F4F0895E89409C097FB3EF490954D
S11308108095709561957F4F8F4F9F4F9923A9F0D5
S1130820F92F96E9BB279395F69587957795679564
S1130830B795F111F8CFFAF4BB0F11F460FF1BC0A8
S11308406F5F7F4F8F4F9F4F16C0882311F096E93B
S113085011C0772321F09EE8872F762F05C06623E9
S113086071F096E8862F70E060E02AF09A95660FA2
S1130870771F881FDAF7880F9695879597F908955B
S113088097F99F6780E870E060E008959FEF80EC3F
S1130890089500240A9416161706180609060895E2
S11308A000240A9412161306140605060895092E48
S11308B00394000C11F4882352F0BB0F40F4BF2BB7
S11308C011F460FF04C06F5F7F4F8F4F9F4F0895F7
S11308D057FD9058440F551F59F05F3F71F04795ED
S11308E0880F97FB991F61F09F3F79F087950895D2
S11308F0121613061406551FF2CF4695F1DF08C0F1
S1130900161617061806991FF1CF8695710561050D
S113091008940895E894BB2766277727CB0197F9B5
S113092008950BD0C4CFB5DF28F0BADF18F09523B3
S113093009F0A6CFABCF1124EECFCADFA0F3959F69
S1130940D1F3950F50E0551F629FF001729FBB27B2
S1130950F00DB11D639FAA27F00DB11DAA1F649F5E
S11309606627B00DA11D661F829F2227B00DA11D11
S1130970621F739FB00DA11D621F839FA00D611D97
S1130980221F749F3327A00D611D231F849F600DB8
S1130990211D822F762F6A2F11249F5750408AF0F1
S11309A0E1F088234AF0EE0FFF1FBB1F661F771F7D
S11309B0881F91505040A9F79E3F510570F060CFB9
S11309C0AACF5F3FECF3983EDCF386957795679565
S11309D0B795F795E7959F5FC1F7FE2B880F911D9B
S11309E09695879597F90895FA01EE0FFF1F3096B3
S11309F02105310599F16115710561F48038BFE372
S1130A009B0749F168949038810561F08038BFEF05
S1130A109B0741F0992342F5FF3FE105310521058C
S1130A2011F1E8940894E795D901AA2329F4AB2F8E
S1130A30BE2FF85FD0F310C0FF5F70F4A695E0F707
S1130A40F73950F019F0FF3A38F49F779F930CD0A0
S1130A500F9007FC905808953EF018CF60E070E0C6
S1130A6080E89FE308954FE79F775F934F933F9309
S1130A702F939ED02F913F914F915F9152DF05C0EC
S1130A8019F40EF0FDCE46CF01CF2ADFC8F3963815
S1130A90C0F707F80F92E8942BE33AEA48EB5FE7D4
S1130AA04EDF0F920F920F924DB75EB70F92C0D0E8
S1130AB0ECE8F0E016D04F915F91EF91FF91E5954E
S1130AC0EE1FFF1F49F0FE57E0684427EE0F441F56
S1130AD0FA95E1F74195550B32D00F9007FE26C0E9
S1130AE00895DF93CF931F930F93FF92EF92DF92BA
S1130AF07B018C01689405C0DA2EEF011EDFFE0134
S1130B00E894A5912591359145915591AEF3EF0166
S1130B10FBDDFE019701A801DA9479F7DF90EF90ED
S1130B20FF900F911F91CF91DF9108959B01AC012C
S1130B3060E070E080E89FE3AEC0A2CE14C1D0DED6
S1130B40E8F39923D9F3940F511DBBF3915050400E
S1130B5094F059F0882332F0660F771F881F915064
S1130B605040C1F79E3F510544F7880F911D96955B
S1130B70879597F908955F3FACF0983E9CF0BB27AA
S1130B80869577956795B79508F4B1609395C1F705
S1130B90BB0F58F711F460FFE8CF6F5F7F4F8F4FA3
S1130BA09F4FE3CFB8CE0EF0DEC070CE689468CE0F
S1130BB097DEC8F39923D1F3C6F3DF93CF931F9342
S1130BC00F93FF92C92FDD2788232AF02197660F00
S1130BD0771F881FDAF720E030E040E85FEB9FE3FF
S1130BE0883920F0803E30F021968F777CDDE4EB6D
S1130BF0F0E003C078DDE1EEF0E073DF8B01BE01CD
S1130C00EC01FB2E6F5771097595771F880B990BB3
S1130C10FCDD28E132E741E35FE38FDEAF2D98018D
S1130C20AE01FF900F911F91CF91DF916DDD3FCE0B
S1130C30FA01DC01AA0FBB1F9B01AC01BF5728F4CA
S1130C4022273327442750781FC0B75188F4AB2F8D
S1130C500024469537952795011CA395D2F30020CF
S1130C6069F0220F331F441FB395DAF30DD03ACD48
S1130C7061307105A0E88A07B94630F49B01AC01E4
S1130C806627772788279078309621F02083318350
S1130C904283538308950CD00ACE02DE40F0F9DD7E
S1130CA030F021F45F3F19F0EBCD511134CEEECD8D
S1130CB00FDE98F39923C9F35523B1F3951B550B14
S1130CC0BB27AA2762177307840738F09F5F5F4F1B
S1130CD0220F331F441FAA1FA9F333D00E2E3AF05C
S1130CE0E0E830D091505040E695001CCAF729D076
S1130CF0FE2F27D0660F771F881FBB1F26173707C5
S1130D004807AB07B0E809F0BB0B802DBF01FF27F4
S1130D1093585F4F2AF09E3F510568F0B1CDFBCD4B
S1130D205F3FECF3983EDCF3869577956795B7952E
S1130D30F7959F5FC9F7880F911D9695879597F949
S1130D400895E1E0660F771F881FBB1F62177307C2
S1130D508407BA0720F0621B730B840BBA0BEE1FD7
S1130D6088F7E09508959F3F31F0915020F48795DE
S1130D7077956795B795880F911D9695879597F9FF
S1130D800895AA1BBB1B51E107C0AA1FBB1FA617CE
S1130D90B70710F0A61BB70B881F991F5A95A9F720
S1130DA080959095BC01CD010895A29FB001B39F99
S1130DB0C001A39F700D811D1124911DB29F700D60
S10F0DC0811D1124911D0895F894FFCFAB
S1050DCC010020
S9030000FC
